{
    "contractName": "TicketingSystem",
    "abi": [
        {
            "inputs": [
                {
                    "internalType": "uint256",
                    "name": "_ticketPrice",
                    "type": "uint256"
                },
                {
                    "internalType": "uint256",
                    "name": "_visitorLimit",
                    "type": "uint256"
                },
                {
                    "internalType": "uint256",
                    "name": "_eventStartTime",
                    "type": "uint256"
                },
                {
                    "internalType": "uint256",
                    "name": "_eventFinishTime",
                    "type": "uint256"
                },
                {
                    "internalType": "uint256",
                    "name": "_expirationTime",
                    "type": "uint256"
                }
            ],
            "stateMutability": "nonpayable",
            "type": "constructor"
        },
        {
            "inputs": [
                {
                    "internalType": "string",
                    "name": "_name",
                    "type": "string"
                },
                {
                    "internalType": "string",
                    "name": "_surname",
                    "type": "string"
                }
            ],
            "name": "buyTicket",
            "outputs": [],
            "stateMutability": "nonpayable",
            "type": "function"
        },
        {
            "inputs": [],
            "name": "eventFinishTime",
            "outputs": [
                {
                    "internalType": "uint256",
                    "name": "",
                    "type": "uint256"
                }
            ],
            "stateMutability": "view",
            "type": "function"
        },
        {
            "inputs": [],
            "name": "eventStartTime",
            "outputs": [
                {
                    "internalType": "uint256",
                    "name": "",
                    "type": "uint256"
                }
            ],
            "stateMutability": "view",
            "type": "function"
        },
        {
            "inputs": [],
            "name": "ticketPrice",
            "outputs": [
                {
                    "internalType": "uint256",
                    "name": "",
                    "type": "uint256"
                }
            ],
            "stateMutability": "view",
            "type": "function"
        },
        {
            "inputs": [],
            "name": "visitorLimit",
            "outputs": [
                {
                    "internalType": "uint256",
                    "name": "",
                    "type": "uint256"
                }
            ],
            "stateMutability": "view",
            "type": "function"
        },
        {
            "inputs": [
                {
                    "internalType": "uint256",
                    "name": "",
                    "type": "uint256"
                }
            ],
            "name": "visitors",
            "outputs": [
                {
                    "internalType": "string",
                    "name": "name",
                    "type": "string"
                },
                {
                    "internalType": "string",
                    "name": "surname",
                    "type": "string"
                },
                {
                    "internalType": "address payable",
                    "name": "wallet",
                    "type": "address"
                }
            ],
            "stateMutability": "view",
            "type": "function"
        }
    ],
    "bytecode": "608060405234801561001057600080fd5b506040516105a13803806105a183398101604081905261002f9161009c565b600080546001600160a01b0319163317905560018590556004849055600283905560038290556006819055606461006684846100f2565b61007190601e61010b565b61007b9190610122565b60055560035461008e9062015180610144565b600655506101579350505050565b600080600080600060a086880312156100b457600080fd5b5050835160208501516040860151606087015160809097015192989197509594509092509050565b634e487b7160e01b600052601160045260246000fd5b81810381811115610105576101056100dc565b92915050565b8082028115828204841417610105576101056100dc565b60008261013f57634e487b7160e01b600052601260045260246000fd5b500490565b80820180821115610105576101056100dc565b61043b806101666000396000f3fe608060405234801561001057600080fd5b50600436106100625760003560e01c80631209b1f6146100675780633e07e5721461008357806342b71a361461008c578063740ea9a6146100ae5780637623b4c3146100b7578063a97b7ebc146100cb575b600080fd5b61007060015481565b6040519081526020015b60405180910390f35b61007060045481565b61009f61009a366004610227565b6100d4565b60405161007a93929190610286565b61007060025481565b6100c96100c5366004610367565b5050565b005b61007060035481565b600781815481106100e457600080fd5b9060005260206000209060030201600091509050806000018054610107906103cb565b80601f0160208091040260200160405190810160405280929190818152602001828054610133906103cb565b80156101805780601f1061015557610100808354040283529160200191610180565b820191906000526020600020905b81548152906001019060200180831161016357829003601f168201915b505050505090806001018054610195906103cb565b80601f01602080910402602001604051908101604052809291908181526020018280546101c1906103cb565b801561020e5780601f106101e35761010080835404028352916020019161020e565b820191906000526020600020905b8154815290600101906020018083116101f157829003601f168201915b505050600290930154919250506001600160a01b031683565b60006020828403121561023957600080fd5b5035919050565b6000815180845260005b818110156102665760208185018101518683018201520161024a565b506000602082860101526020601f19601f83011685010191505092915050565b6060815260006102996060830186610240565b82810360208401526102ab8186610240565b91505060018060a01b0383166040830152949350505050565b634e487b7160e01b600052604160045260246000fd5b600082601f8301126102eb57600080fd5b813567ffffffffffffffff80821115610306576103066102c4565b604051601f8301601f19908116603f0116810190828211818310171561032e5761032e6102c4565b8160405283815286602085880101111561034757600080fd5b836020870160208301376000602085830101528094505050505092915050565b6000806040838503121561037a57600080fd5b823567ffffffffffffffff8082111561039257600080fd5b61039e868387016102da565b935060208501359150808211156103b457600080fd5b506103c1858286016102da565b9150509250929050565b600181811c908216806103df57607f821691505b6020821081036103ff57634e487b7160e01b600052602260045260246000fd5b5091905056fea2646970667358221220327fa631b01ac6caf7af680ca2ccf7b4ca44b5d838a6e321c276a8a05d16b24a64736f6c63430008130033",
    "sourcePath": "c:/Users/oguzt/Documents/GitHub/BlockchainEventTicketing/Contracts/TicketingContract.sol",
    "compiler": {
        "name": "solc",
        "version": "0.8.19+commit.7dd6d404"
    },
    "functionHashes": {
        "buyTicket(string,string)": "7623b4c3",
        "eventFinishTime()": "a97b7ebc",
        "eventStartTime()": "740ea9a6",
        "ticketPrice()": "1209b1f6",
        "visitorLimit()": "3e07e572",
        "visitors(uint256)": "42b71a36"
    },
    "gasEstimates": {
        "creation": {
            "codeDepositCost": "216600",
            "executionCost": "infinite",
            "totalCost": "infinite"
        },
        "external": {
            "buyTicket(string,string)": "infinite",
            "eventFinishTime()": "2372",
            "eventStartTime()": "2328",
            "ticketPrice()": "2262",
            "visitorLimit()": "2284",
            "visitors(uint256)": "infinite"
        }
    }
}